{
	"data": {
		"bytecode": {
			"linkReferences": {},
			"object": "6080604052600a5f553480156012575f5ffd5b50610542806100205f395ff3fe608060405234801561000f575f5ffd5b5060043610610060575f3560e01c80634896eb591461006457806354f363a31461008057806365372147146100b0578063900683d0146100ce578063c6888fa1146100fe578063e0a64fd01461011a575b5f5ffd5b61007e60048036038101906100799190610299565b61014a565b005b61009a600480360381019061009591906102c4565b61016d565b6040516100a79190610311565b60405180910390f35b6100b86101bd565b6040516100c59190610311565b60405180910390f35b6100e860048036038101906100e391906102c4565b6101c2565b6040516100f59190610311565b60405180910390f35b61011860048036038101906101139190610299565b610210565b005b610134600480360381019061012f919061035d565b610225565b60405161014191906103aa565b60405180910390f35b80600a8114610157575f5ffd5b815f5461016491906103f0565b5f819055505050565b5f818361017a9190610431565b90507f099a8fd2a0841afbe8000d711d763bf2c54b2c63bed7b7f92a244ef4f51545368383836040516101af93929190610464565b60405180910390a192915050565b5f5481565b5f6101cd8383610238565b90507fcc1e4c4352d62a39790806ed8a1280fcd6798f7aeda79d070b0ddcea074ac16883838360405161020293929190610464565b60405180910390a192915050565b805f5461021d91906103f0565b5f8190555050565b5f610230838361024d565b905092915050565b5f81836102459190610499565b905092915050565b5f818361025a91906104cc565b905092915050565b5f5ffd5b5f819050919050565b61027881610266565b8114610282575f5ffd5b50565b5f813590506102938161026f565b92915050565b5f602082840312156102ae576102ad610262565b5b5f6102bb84828501610285565b91505092915050565b5f5f604083850312156102da576102d9610262565b5b5f6102e785828601610285565b92505060206102f885828601610285565b9150509250929050565b61030b81610266565b82525050565b5f6020820190506103245f830184610302565b92915050565b5f819050919050565b61033c8161032a565b8114610346575f5ffd5b50565b5f8135905061035781610333565b92915050565b5f5f6040838503121561037357610372610262565b5b5f61038085828601610349565b925050602061039185828601610349565b9150509250929050565b6103a48161032a565b82525050565b5f6020820190506103bd5f83018461039b565b92915050565b7f4e487b71000000000000000000000000000000000000000000000000000000005f52601160045260245ffd5b5f6103fa82610266565b915061040583610266565b925082820261041381610266565b9150828204841483151761042a576104296103c3565b5b5092915050565b5f61043b82610266565b915061044683610266565b925082820190508082111561045e5761045d6103c3565b5b92915050565b5f6060820190506104775f830186610302565b6104846020830185610302565b6104916040830184610302565b949350505050565b5f6104a382610266565b91506104ae83610266565b92508282039050818111156104c6576104c56103c3565b5b92915050565b5f6104d68261032a565b91506104e18361032a565b925082820390508181125f8412168282135f851215161715610506576105056103c3565b5b9291505056fea2646970667358221220d0dc81bb85bcb92ad3de1174861c6f156240b2615901f7bc1d4c8902f54f03da64736f6c634300081e0033",
			"opcodes": "PUSH1 0x80 PUSH1 0x40 MSTORE PUSH1 0xA PUSH0 SSTORE CALLVALUE DUP1 ISZERO PUSH1 0x12 JUMPI PUSH0 PUSH0 REVERT JUMPDEST POP PUSH2 0x542 DUP1 PUSH2 0x20 PUSH0 CODECOPY PUSH0 RETURN INVALID PUSH1 0x80 PUSH1 0x40 MSTORE CALLVALUE DUP1 ISZERO PUSH2 0xF JUMPI PUSH0 PUSH0 REVERT JUMPDEST POP PUSH1 0x4 CALLDATASIZE LT PUSH2 0x60 JUMPI PUSH0 CALLDATALOAD PUSH1 0xE0 SHR DUP1 PUSH4 0x4896EB59 EQ PUSH2 0x64 JUMPI DUP1 PUSH4 0x54F363A3 EQ PUSH2 0x80 JUMPI DUP1 PUSH4 0x65372147 EQ PUSH2 0xB0 JUMPI DUP1 PUSH4 0x900683D0 EQ PUSH2 0xCE JUMPI DUP1 PUSH4 0xC6888FA1 EQ PUSH2 0xFE JUMPI DUP1 PUSH4 0xE0A64FD0 EQ PUSH2 0x11A JUMPI JUMPDEST PUSH0 PUSH0 REVERT JUMPDEST PUSH2 0x7E PUSH1 0x4 DUP1 CALLDATASIZE SUB DUP2 ADD SWAP1 PUSH2 0x79 SWAP2 SWAP1 PUSH2 0x299 JUMP JUMPDEST PUSH2 0x14A JUMP JUMPDEST STOP JUMPDEST PUSH2 0x9A PUSH1 0x4 DUP1 CALLDATASIZE SUB DUP2 ADD SWAP1 PUSH2 0x95 SWAP2 SWAP1 PUSH2 0x2C4 JUMP JUMPDEST PUSH2 0x16D JUMP JUMPDEST PUSH1 0x40 MLOAD PUSH2 0xA7 SWAP2 SWAP1 PUSH2 0x311 JUMP JUMPDEST PUSH1 0x40 MLOAD DUP1 SWAP2 SUB SWAP1 RETURN JUMPDEST PUSH2 0xB8 PUSH2 0x1BD JUMP JUMPDEST PUSH1 0x40 MLOAD PUSH2 0xC5 SWAP2 SWAP1 PUSH2 0x311 JUMP JUMPDEST PUSH1 0x40 MLOAD DUP1 SWAP2 SUB SWAP1 RETURN JUMPDEST PUSH2 0xE8 PUSH1 0x4 DUP1 CALLDATASIZE SUB DUP2 ADD SWAP1 PUSH2 0xE3 SWAP2 SWAP1 PUSH2 0x2C4 JUMP JUMPDEST PUSH2 0x1C2 JUMP JUMPDEST PUSH1 0x40 MLOAD PUSH2 0xF5 SWAP2 SWAP1 PUSH2 0x311 JUMP JUMPDEST PUSH1 0x40 MLOAD DUP1 SWAP2 SUB SWAP1 RETURN JUMPDEST PUSH2 0x118 PUSH1 0x4 DUP1 CALLDATASIZE SUB DUP2 ADD SWAP1 PUSH2 0x113 SWAP2 SWAP1 PUSH2 0x299 JUMP JUMPDEST PUSH2 0x210 JUMP JUMPDEST STOP JUMPDEST PUSH2 0x134 PUSH1 0x4 DUP1 CALLDATASIZE SUB DUP2 ADD SWAP1 PUSH2 0x12F SWAP2 SWAP1 PUSH2 0x35D JUMP JUMPDEST PUSH2 0x225 JUMP JUMPDEST PUSH1 0x40 MLOAD PUSH2 0x141 SWAP2 SWAP1 PUSH2 0x3AA JUMP JUMPDEST PUSH1 0x40 MLOAD DUP1 SWAP2 SUB SWAP1 RETURN JUMPDEST DUP1 PUSH1 0xA DUP2 EQ PUSH2 0x157 JUMPI PUSH0 PUSH0 REVERT JUMPDEST DUP2 PUSH0 SLOAD PUSH2 0x164 SWAP2 SWAP1 PUSH2 0x3F0 JUMP JUMPDEST PUSH0 DUP2 SWAP1 SSTORE POP POP POP JUMP JUMPDEST PUSH0 DUP2 DUP4 PUSH2 0x17A SWAP2 SWAP1 PUSH2 0x431 JUMP JUMPDEST SWAP1 POP PUSH32 0x99A8FD2A0841AFBE8000D711D763BF2C54B2C63BED7B7F92A244EF4F5154536 DUP4 DUP4 DUP4 PUSH1 0x40 MLOAD PUSH2 0x1AF SWAP4 SWAP3 SWAP2 SWAP1 PUSH2 0x464 JUMP JUMPDEST PUSH1 0x40 MLOAD DUP1 SWAP2 SUB SWAP1 LOG1 SWAP3 SWAP2 POP POP JUMP JUMPDEST PUSH0 SLOAD DUP2 JUMP JUMPDEST PUSH0 PUSH2 0x1CD DUP4 DUP4 PUSH2 0x238 JUMP JUMPDEST SWAP1 POP PUSH32 0xCC1E4C4352D62A39790806ED8A1280FCD6798F7AEDA79D070B0DDCEA074AC168 DUP4 DUP4 DUP4 PUSH1 0x40 MLOAD PUSH2 0x202 SWAP4 SWAP3 SWAP2 SWAP1 PUSH2 0x464 JUMP JUMPDEST PUSH1 0x40 MLOAD DUP1 SWAP2 SUB SWAP1 LOG1 SWAP3 SWAP2 POP POP JUMP JUMPDEST DUP1 PUSH0 SLOAD PUSH2 0x21D SWAP2 SWAP1 PUSH2 0x3F0 JUMP JUMPDEST PUSH0 DUP2 SWAP1 SSTORE POP POP JUMP JUMPDEST PUSH0 PUSH2 0x230 DUP4 DUP4 PUSH2 0x24D JUMP JUMPDEST SWAP1 POP SWAP3 SWAP2 POP POP JUMP JUMPDEST PUSH0 DUP2 DUP4 PUSH2 0x245 SWAP2 SWAP1 PUSH2 0x499 JUMP JUMPDEST SWAP1 POP SWAP3 SWAP2 POP POP JUMP JUMPDEST PUSH0 DUP2 DUP4 PUSH2 0x25A SWAP2 SWAP1 PUSH2 0x4CC JUMP JUMPDEST SWAP1 POP SWAP3 SWAP2 POP POP JUMP JUMPDEST PUSH0 PUSH0 REVERT JUMPDEST PUSH0 DUP2 SWAP1 POP SWAP2 SWAP1 POP JUMP JUMPDEST PUSH2 0x278 DUP2 PUSH2 0x266 JUMP JUMPDEST DUP2 EQ PUSH2 0x282 JUMPI PUSH0 PUSH0 REVERT JUMPDEST POP JUMP JUMPDEST PUSH0 DUP2 CALLDATALOAD SWAP1 POP PUSH2 0x293 DUP2 PUSH2 0x26F JUMP JUMPDEST SWAP3 SWAP2 POP POP JUMP JUMPDEST PUSH0 PUSH1 0x20 DUP3 DUP5 SUB SLT ISZERO PUSH2 0x2AE JUMPI PUSH2 0x2AD PUSH2 0x262 JUMP JUMPDEST JUMPDEST PUSH0 PUSH2 0x2BB DUP5 DUP3 DUP6 ADD PUSH2 0x285 JUMP JUMPDEST SWAP2 POP POP SWAP3 SWAP2 POP POP JUMP JUMPDEST PUSH0 PUSH0 PUSH1 0x40 DUP4 DUP6 SUB SLT ISZERO PUSH2 0x2DA JUMPI PUSH2 0x2D9 PUSH2 0x262 JUMP JUMPDEST JUMPDEST PUSH0 PUSH2 0x2E7 DUP6 DUP3 DUP7 ADD PUSH2 0x285 JUMP JUMPDEST SWAP3 POP POP PUSH1 0x20 PUSH2 0x2F8 DUP6 DUP3 DUP7 ADD PUSH2 0x285 JUMP JUMPDEST SWAP2 POP POP SWAP3 POP SWAP3 SWAP1 POP JUMP JUMPDEST PUSH2 0x30B DUP2 PUSH2 0x266 JUMP JUMPDEST DUP3 MSTORE POP POP JUMP JUMPDEST PUSH0 PUSH1 0x20 DUP3 ADD SWAP1 POP PUSH2 0x324 PUSH0 DUP4 ADD DUP5 PUSH2 0x302 JUMP JUMPDEST SWAP3 SWAP2 POP POP JUMP JUMPDEST PUSH0 DUP2 SWAP1 POP SWAP2 SWAP1 POP JUMP JUMPDEST PUSH2 0x33C DUP2 PUSH2 0x32A JUMP JUMPDEST DUP2 EQ PUSH2 0x346 JUMPI PUSH0 PUSH0 REVERT JUMPDEST POP JUMP JUMPDEST PUSH0 DUP2 CALLDATALOAD SWAP1 POP PUSH2 0x357 DUP2 PUSH2 0x333 JUMP JUMPDEST SWAP3 SWAP2 POP POP JUMP JUMPDEST PUSH0 PUSH0 PUSH1 0x40 DUP4 DUP6 SUB SLT ISZERO PUSH2 0x373 JUMPI PUSH2 0x372 PUSH2 0x262 JUMP JUMPDEST JUMPDEST PUSH0 PUSH2 0x380 DUP6 DUP3 DUP7 ADD PUSH2 0x349 JUMP JUMPDEST SWAP3 POP POP PUSH1 0x20 PUSH2 0x391 DUP6 DUP3 DUP7 ADD PUSH2 0x349 JUMP JUMPDEST SWAP2 POP POP SWAP3 POP SWAP3 SWAP1 POP JUMP JUMPDEST PUSH2 0x3A4 DUP2 PUSH2 0x32A JUMP JUMPDEST DUP3 MSTORE POP POP JUMP JUMPDEST PUSH0 PUSH1 0x20 DUP3 ADD SWAP1 POP PUSH2 0x3BD PUSH0 DUP4 ADD DUP5 PUSH2 0x39B JUMP JUMPDEST SWAP3 SWAP2 POP POP JUMP JUMPDEST PUSH32 0x4E487B7100000000000000000000000000000000000000000000000000000000 PUSH0 MSTORE PUSH1 0x11 PUSH1 0x4 MSTORE PUSH1 0x24 PUSH0 REVERT JUMPDEST PUSH0 PUSH2 0x3FA DUP3 PUSH2 0x266 JUMP JUMPDEST SWAP2 POP PUSH2 0x405 DUP4 PUSH2 0x266 JUMP JUMPDEST SWAP3 POP DUP3 DUP3 MUL PUSH2 0x413 DUP2 PUSH2 0x266 JUMP JUMPDEST SWAP2 POP DUP3 DUP3 DIV DUP5 EQ DUP4 ISZERO OR PUSH2 0x42A JUMPI PUSH2 0x429 PUSH2 0x3C3 JUMP JUMPDEST JUMPDEST POP SWAP3 SWAP2 POP POP JUMP JUMPDEST PUSH0 PUSH2 0x43B DUP3 PUSH2 0x266 JUMP JUMPDEST SWAP2 POP PUSH2 0x446 DUP4 PUSH2 0x266 JUMP JUMPDEST SWAP3 POP DUP3 DUP3 ADD SWAP1 POP DUP1 DUP3 GT ISZERO PUSH2 0x45E JUMPI PUSH2 0x45D PUSH2 0x3C3 JUMP JUMPDEST JUMPDEST SWAP3 SWAP2 POP POP JUMP JUMPDEST PUSH0 PUSH1 0x60 DUP3 ADD SWAP1 POP PUSH2 0x477 PUSH0 DUP4 ADD DUP7 PUSH2 0x302 JUMP JUMPDEST PUSH2 0x484 PUSH1 0x20 DUP4 ADD DUP6 PUSH2 0x302 JUMP JUMPDEST PUSH2 0x491 PUSH1 0x40 DUP4 ADD DUP5 PUSH2 0x302 JUMP JUMPDEST SWAP5 SWAP4 POP POP POP POP JUMP JUMPDEST PUSH0 PUSH2 0x4A3 DUP3 PUSH2 0x266 JUMP JUMPDEST SWAP2 POP PUSH2 0x4AE DUP4 PUSH2 0x266 JUMP JUMPDEST SWAP3 POP DUP3 DUP3 SUB SWAP1 POP DUP2 DUP2 GT ISZERO PUSH2 0x4C6 JUMPI PUSH2 0x4C5 PUSH2 0x3C3 JUMP JUMPDEST JUMPDEST SWAP3 SWAP2 POP POP JUMP JUMPDEST PUSH0 PUSH2 0x4D6 DUP3 PUSH2 0x32A JUMP JUMPDEST SWAP2 POP PUSH2 0x4E1 DUP4 PUSH2 0x32A JUMP JUMPDEST SWAP3 POP DUP3 DUP3 SUB SWAP1 POP DUP2 DUP2 SLT PUSH0 DUP5 SLT AND DUP3 DUP3 SGT PUSH0 DUP6 SLT ISZERO AND OR ISZERO PUSH2 0x506 JUMPI PUSH2 0x505 PUSH2 0x3C3 JUMP JUMPDEST JUMPDEST SWAP3 SWAP2 POP POP JUMP INVALID LOG2 PUSH5 0x6970667358 0x22 SLT KECCAK256 0xD0 0xDC DUP2 0xBB DUP6 0xBC 0xB9 0x2A 0xD3 0xDE GT PUSH21 0x861C6F156240B2615901F7BC1D4C8902F54F03DA64 PUSH20 0x6F6C634300081E00330000000000000000000000 "
		},
		"gasEstimates": {
			"creation": {
				"codeDepositCost": "269200",
				"executionCost": "22415",
				"totalCost": "291615"
			},
			"external": {
				"addition(uint256,uint256)": "infinite",
				"multiply(uint256)": "infinite",
				"multiply2(uint256)": "infinite",
				"result()": "2446",
				"subtraction(uint256,uint256)": "infinite",
				"subtraction2(int256,int256)": "infinite"
			},
			"internal": {
				"subtraction_logic(uint256,uint256)": "infinite",
				"subtraction_logic2(int256,int256)": "infinite"
			}
		},
		"methodIdentifiers": {
			"addition(uint256,uint256)": "54f363a3",
			"multiply(uint256)": "c6888fa1",
			"multiply2(uint256)": "4896eb59",
			"result()": "65372147",
			"subtraction(uint256,uint256)": "900683d0",
			"subtraction2(int256,int256)": "e0a64fd0"
		}
	},
	"abi": [
		{
			"anonymous": false,
			"inputs": [
				{
					"indexed": false,
					"internalType": "uint256",
					"name": "number1",
					"type": "uint256"
				},
				{
					"indexed": false,
					"internalType": "uint256",
					"name": "number2",
					"type": "uint256"
				},
				{
					"indexed": false,
					"internalType": "uint256",
					"name": "result",
					"type": "uint256"
				}
			],
			"name": "Addition",
			"type": "event"
		},
		{
			"anonymous": false,
			"inputs": [
				{
					"indexed": false,
					"internalType": "uint256",
					"name": "number1",
					"type": "uint256"
				},
				{
					"indexed": false,
					"internalType": "uint256",
					"name": "number2",
					"type": "uint256"
				},
				{
					"indexed": false,
					"internalType": "uint256",
					"name": "result",
					"type": "uint256"
				}
			],
			"name": "Subtraction",
			"type": "event"
		},
		{
			"inputs": [
				{
					"internalType": "uint256",
					"name": "num1_",
					"type": "uint256"
				},
				{
					"internalType": "uint256",
					"name": "num2_",
					"type": "uint256"
				}
			],
			"name": "addition",
			"outputs": [
				{
					"internalType": "uint256",
					"name": "result_",
					"type": "uint256"
				}
			],
			"stateMutability": "nonpayable",
			"type": "function"
		},
		{
			"inputs": [
				{
					"internalType": "uint256",
					"name": "num1_",
					"type": "uint256"
				}
			],
			"name": "multiply",
			"outputs": [],
			"stateMutability": "nonpayable",
			"type": "function"
		},
		{
			"inputs": [
				{
					"internalType": "uint256",
					"name": "num1_",
					"type": "uint256"
				}
			],
			"name": "multiply2",
			"outputs": [],
			"stateMutability": "nonpayable",
			"type": "function"
		},
		{
			"inputs": [],
			"name": "result",
			"outputs": [
				{
					"internalType": "uint256",
					"name": "",
					"type": "uint256"
				}
			],
			"stateMutability": "view",
			"type": "function"
		},
		{
			"inputs": [
				{
					"internalType": "uint256",
					"name": "num1_",
					"type": "uint256"
				},
				{
					"internalType": "uint256",
					"name": "num2_",
					"type": "uint256"
				}
			],
			"name": "subtraction",
			"outputs": [
				{
					"internalType": "uint256",
					"name": "result_",
					"type": "uint256"
				}
			],
			"stateMutability": "nonpayable",
			"type": "function"
		},
		{
			"inputs": [
				{
					"internalType": "int256",
					"name": "num1_",
					"type": "int256"
				},
				{
					"internalType": "int256",
					"name": "num2_",
					"type": "int256"
				}
			],
			"name": "subtraction2",
			"outputs": [
				{
					"internalType": "int256",
					"name": "result_",
					"type": "int256"
				}
			],
			"stateMutability": "pure",
			"type": "function"
		}
	]
}